:020000040000FA
:0600000062EF07F01200A0
:020006001200E6
:0600080031EF05F01200CB
:02000E000000F0
:0400100000000000EC
:06001800C7EF04F0120026
:02001E000600DA
:100020003D0F0000000F00000C000000350F000025
:10003000210F0000080000002A0F00000C0F000034
:100040000B0000000E000000290F00000600000059
:10005000EE0E0000800000003C000000E00E0000FA
:08006000F10000000E00000099
:08006800D9CFE6FFE1CFD9FF7B
:10007000E65241D8DF6A0A0EDF5C0DE2320EE66E10
:10008000E66A65D8E552E552DFCFE6FF27EC07F0D8
:10009000E552DF2AF0D70F01306B94D8EBD8AED9F8
:1000A00030CFE6FF27EC07F0E5526BD90001F551A0
:1000B000F4E0F56B4AD930CFE9FFEA6AE9BEEA68B5
:1000C000290EE9260F0EEA22EF500CE08080640E24
:1000D000E66EE66A3CD8E552E5528090A00EE66EE8
:1000E0000F0E03D0F40EE66E010EE66E85EC03F003
:1000F000E552E552D2D7D398D38AD38C0F01306B17
:10010000020E2F6F929080903DEC06F024EC07F0E9
:10011000B6EC03F0C3EC04F0DFEC06F091EC05F074
:10012000100EE66E270EE66E21EC02F0E552E55267
:1001300030CFE6FF27EC07F0E55260D9E80EE66E17
:10014000030EE66E85EC03F0E552E5521200D9CFBE
:10015000E6FFE1CFD9FF040EE126DE6ADD6ADECFDD
:1001600010F0DDCF11F0FD0EDBCF12F0FE0EDBCF75
:1001700013F01250105C135011581AE2020EDB6A91
:10018000030EDB6A020EDBCF10F0030EDBCF11F0A3
:10019000A00E105C000E115806E2020EDB2A030EC0
:1001A000F1E3DB2AEFD7DF2A010ED9E3DB2AD7D729
:1001B000040EE15C02E2E16AE552E16EE552E7CF4E
:1001C000D9FF1200D9CFE6FFE1CFD9FF020EE12619
:1001D000DE6ADD6ADECF10F0DDCF11F0D89011506D
:1001E00004E6060E105C000E11581AE2DFCFE6FF9F
:1001F0008FEC04F0E55200090EE0DFCFE6FFE8D80F
:10020000E552DECFE9FFDDCFEAFF290EE9260F0E2A
:10021000EA22010EEF6EDF2A010EDCE3DB2ADAD7D9
:10022000FF0E0001F05D1CE0610EE66EEEEC06F0E4
:10023000E552300E0001F025E66EEEEC06F0E552D8
:10024000DFCFE6FFC5D8E552DECFE9FFDDCFEAFF1D
:10025000290EE9260F0EEA22010EEF6E0001F06969
:10026000020EE15C02E2E16AE552E16EE552E7CF9F
:10027000D9FF120030CFE9FFEA6AE9BEEA68290E29
:10028000E9260F0EEA22EF6A30CF10F0116A10BE95
:10029000116810C0E6FF11C0E6FF68EC06F0E552F9
:1002A000E5521200D9CFE6FFE1CFD9FFE6520F01A8
:1002B0003029DF6EDFCF10F0060EE76E1018E8AEC3
:1002C00002D0E73402D0E750105C0FE2DFCFE9FF45
:1002D000EA6AE9BEEA68290EE9260F0EEA22EF5023
:1002E00002E0010E03D0DF2AE5D7000EE552E55209
:1002F000E7CFD9FF1200D9CFE6FFE1CFD9FFE65211
:100300000F013005DF6EDFCF10F0FF0EE76E101823
:10031000E8AE02D0103403D0E750D88010540FE27A
:10032000DFCFE9FFEA6AE9BEEA68290EE9260F0E87
:10033000EA22EF5002E0010E03D0DF06E4D7000E00
:10034000E552E552E7CFD9FF12000F012F510FE11F
:10035000302B050EE76E3019E8AE02D0303503D0F1
:10036000E750D88030550CE2050E306F12002F0593
:1003700005E13007303504E3306B1200020E2F5DCB
:1003800012000F012F51020A13E0030A0AE0010ACA
:1003900001E0120087DF00090EE1ADDF000911E185
:1003A00013D0A9DF00090DE17DDF000904E10CD0C5
:1003B00079DF000903E00F012F6B12009CDF0009B9
:1003C00003E00F01010E02D00F01020E2F6F120089
:1003D000D9CFE6FFE1CFD9FFFE0EDBCF10F0116AD7
:1003E00010BE116810C0E6FF11C0E6FF40EC06F039
:1003F000E552E552E552E7CFD9FF12000F012F5128
:1004000006E1060EE66EE66A40EC06F010D02F0517
:1004100009E1070EE66EE66A40EC06F0E552E552A9
:10042000060E08D0060EE66EE66A68EC06F0E552A7
:10043000E552070EE66EE66A68EC06F0E552E55214
:020440001200A8
:0E044200D9CFE6FFE1CFD9FFD59EFD0EDBCF6F
:10045000F1F0FE0EDBCFF2F0D59C13681468156A3C
:10046000F1C016F0F2C017F0186A1650135C106E47
:1004700017501458116E18501558126E0C6A010E50
:100480000D6E0E6A10C007F011C008F012C009F01E
:1004900010EC06F00350D66E13681468156AF1C0AC
:1004A00016F0F2C017F0186A1650135C106E175051
:1004B0001458116E18501558126E0C6A010E0D6EFC
:1004C0000E6A10C007F011C008F012C009F010EC5D
:1004D00006F007C010F008C011F009C012F0075074
:1004E000D76ED59AD586F28AF294F184D58EE552EC
:1004F000E7CFD9FF1200D59E120013681468156A61
:10050000F1C016F0F2C017F0186A1650135C106EA6
:1005100017501458116E18501558126E0C6A010EAF
:100520000D6E0E6A10C007F011C008F012C009F07D
:1005300010EC06F00350D66E13681468156AF1C00B
:1005400016F0F2C017F0186A1650135C106E1750B0
:100550001458116E18501558126E0C6A010E0D6E5B
:100560000E6A10C007F011C008F012C009F010ECBC
:1005700006F007C010F008C011F009C012F00750D3
:10058000D76ED58E1200D9CFE6FFE1CFD9FFCD903F
:10059000FD0EDBCFF3F0FE0EDBCFF4F01368146832
:1005A000156AF3C016F0F4C017F0186A1650135C01
:1005B000106E17501458116E18501558126E0C6AA0
:1005C000010E0D6E0E6A10C007F011C008F012C0C7
:1005D00009F010EC06F00750CF6E13681468156A26
:1005E000F3C016F0F4C017F0186A1650135C106EC2
:1005F00017501458116E18501558126E0C6A010ECF
:100600000D6E0E6A10C007F011C008F012C009F09C
:1006100010EC06F003C010F004C011F005C012F099
:100620000350CE6E9D809E909F90CD8ECD9CCD9898
:10063000CD9ACD96CD92CD80E552E7CFD9FF12006D
:1006400013681468156AF3C016F0F4C017F0186A3E
:100650001650135C106E17501458116E1850155820
:10066000126E0C6A010E0D6E0E6A10C007F011C0FA
:1006700008F012C009F010EC06F00750CF6E1368B6
:100680001468156AF3C016F0F4C017F0186A165013
:10069000135C106E17501458116E18501558126EC6
:1006A0000C6A010E0D6E0E6A10C007F011C008F042
:1006B00012C009F010EC06F003C010F004C011F0F5
:1006C00005C012F00350CE6ECD801200CD90120006
:1006D0000001F72B000EF823FB51F75DFC51F85990
:1006E00004E3F76BF86B010EF56FB9EF03F000014F
:1006F000F92B000EFA23FD51F95DFE51FA5904E37E
:10070000F96BFA6B010EF66F1200D9CFE6FFE1CF5D
:10071000D9FFFD0EDBCFFBF0FE0EDBCFFCF00A0EA7
:100720000D6E0E6AFBC008F0FCC009F0EAEC05F0A3
:1007300008C0FBF009C0FCF00001F76BF86BF56B2B
:10074000E552E7CFD9FF1200D9CFE6FFE1CFD9FFBD
:10075000FD0EDBCFFDF0FE0EDBCFFEF00001F96BEE
:0C076000FA6BF66BE552E7CFD9FF1200F0
:04076C0094688268A3
:100770001200D9CFE6FFE1CFD9FFE652DF6A060EBD
:10078000DF5C01E3AAD0DF50EA6ABC0FE96E000E1D
:10079000EA22EF50E66EDF50EA6AC20FE96E000E01
:1007A000EA22E552E750EF6EDF50EA6A000FE96E89
:1007B0000F0EEA22EF508214E66EDF50EA6ABC0F99
:1007C000E96E000EEA22E552E750EF6EDF50EA6A6A
:1007D000BC0FE96E000EEA22EFCF10F0DF50EA6A9C
:1007E000C20FE96E000EEA22EF50105C74E1DF5098
:1007F000EA6ABC0FE96E000EEA22EF50E66EDF50A7
:10080000EA6A060FE96E0F0EEA22E552E750EF6E34
:10081000DF50EA6A060FE96E0F0EEA22EF5028E178
:10082000EA6ADF34FE0BEA36E96ED40EE926000EE2
:10083000EA22EECF10F0EFCF11F0C80E105C000EE0
:1008400011580DE2EA6ADF34FE0BEA36E96ED40E87
:10085000E926000EEA22EE2A000EEF223CD0DF50FD
:10086000EA6ACE0FE96E000EEA22010EEF6E33D077
:10087000EA6ADF34FE0BEA36E96ED40EE926000E92
:10088000EA22EE50ED1008E0DF50EA6ACE0FE96E82
:10089000000EEA22EF5002E0000E01D0010EE66EDB
:1008A000DF50EA6AC80FE96E000EEA22E552E7500F
:1008B000EF6EEA6ADF34FE0BEA36E96ED40EE92603
:1008C000000EEA22EE6AED6ADF50EA6ACE0FE96EA8
:1008D000000EEA22EF6ADF2A52D7E552E552E7CF4F
:1008E000D9FF1200D9CFE6FFE1CFD9FF060EF36E94
:1008F000FE0EDBCFF4FFF350F45C02E3000E0BD0EE
:10090000FE0EEA6ADB34FE0BEA36E96ED40EE92607
:10091000000EEA22EF50E552E7CFD9FF1200D9CFFF
:10092000E6FFE1CFD9FF060EF36EFE0EDBCFF4FF3C
:10093000F350F45C02E3000E08D0FE0EDB50EA6ACE
:10094000C80FE96E000EEA22EF50E552E7CFD9FF5B
:100950001200D9CFE6FFE1CFD9FF060EF36EFE0EEF
:10096000DBCFF4FFF350F45C02E3FF0E08D0FE0E81
:10097000DB50EA6ACE0FE96E000EEA22EF50E55234
:06098000E7CFD9FF1200D1
:0A098600F28ED08EF28C1200D8CF52
:10099000E4FFE0CFE4FFE46EDACFE4FFE2CFDAFF7A
:1009A000E9CFE4FFEACFE4FFF6CFE4FFF7CFE4FFBF
:1009B000F5CFE4FFF3CFE4FFF4CFE4FFFACFE4FF99
:1009C00000EE00F0100EE80403E3EECFE4FFFBD7E7
:1009D00000EE10F0090EE80403E3EECFE4FFFBD7CE
:1009E000E652F2A407D07BEC02F0F2947DEC02F028
:1009F00068EC03F09EA007D066EC03F09E9020EC1C
:100A000003F077EC03F09EAA03D09E9AFCEC06F06C
:100A1000E55200EE18F0090EE80403E3E5CFEDFF20
:100A2000FBD700EE0FF0100EE80403E3E5CFEDFF77
:100A3000FBD7E5CFFAFFE5CFF4FFE5CFF3FFE5CF36
:100A4000F5FFE5CFF7FFE5CFF6FFE5CFEAFFE5CF0E
:100A5000E9FFE5CFDAFFE550E5CFE0FFE5CFD8FFCE
:100A60001000DACFE4FFE2CFDAFFE9CFE4FFEACF0C
:100A7000E4FFF6CFE4FFF7CFE4FFF5CFE4FFF3CFD9
:100A8000E4FFF4CFE4FFFACFE4FF00EE00F0100E35
:100A9000E80403E3EECFE4FFFBD700EE10F0090E0D
:100AA000E80403E3EECFE4FFFBD7E652F2A407D05D
:100AB0007BEC02F0F2947DEC02F068EC03F09EA077
:100AC00007D066EC03F09E9020EC03F077EC03F087
:100AD0009EAA03D09E9AFCEC06F0E55200EE18F0B8
:100AE000090EE80403E3E5CFEDFFFBD700EE0FF0BE
:100AF000100EE80403E3E5CFEDFFFBD7E5CFFAFFE7
:100B0000E5CFF4FFE5CFF3FFE5CFF5FFE5CFF7FF46
:100B1000E5CFF6FFE5CFEAFFE5CFE9FFE5CFDAFF66
:020B20001100C2
:0E0B22000001E06BED6BF06912000001E05184
:100B3000020A1CE0030A0BE0010A4AE1020E00016E
:100B4000FF5D47E10001010EE06FED6BFF0CED5121
:100B5000EA6AE10FE96E000EEA22FFC0EFFFED2B1B
:100B60000C0EED5D36E3020EE06FFF0CEE6B050E32
:100B7000EE5D2CE2EF6B0C0EEF5D1FE2EF51EA6AC7
:100B8000E10FE96E000EEA22EFCF10F0EE510C0DEE
:100B9000F3CF11F0F4CF12F0800E1126000E1222C6
:100BA000EF510F011124E96E000E1220EA6EEF5092
:100BB000105C03E10001EF2BDED70C0E0001EF5DAE
:100BC00003E1E06BEE511200EE2BD1D7E06BFF0C8E
:040BD000E06BFF0CCB
:0C0BD400006A0EAEF3EF05F00D6C0E1E73
:100BE000E86A0E22001E09AEFBEF05F0086C091E34
:100BF000E86A0922001E3CEC07F009BE0BEF06F084
:100C000000AE000C086C091EE86A0922046C051E7F
:100C1000E86A0522000C00BE02EF06F00188FF0C16
:100C2000006A0EAE1BEF06F00C6C0D1E0E1EE86A7D
:100C30000D220E22001E09AE25EF06F0076C081EDD
:100C4000091EE86A08220922001E07EC07F009BE07
:100C500038EF06F000AE000C076C081E091EE86AAB
:100C600008220922036C041E051E04220522000C22
:0A0C700000BE2CEF06F00188FF0C17
:060C7A00956A836A120076
:100C8000D9CFE6FFE1CFD9FFFE0EDBCF11F0800E0A
:100C900011141AE1FD0EDBCF12F0FE0EDBCF13F0C4
:100CA000133404E212500708000E13540DE3FD0E36
:100CB000DBCFE9FFFE0EDBCFEAFF210EE9260F0EA8
:100CC000EA22EF508310836EE552E7CFD9FF12007E
:100CD000D9CFE6FFE1CFD9FFFE0EDBCF11F0800EBA
:100CE00011141AE1FD0EDBCF12F0FE0EDBCF13F074
:100CF000133404E212500708000E13540DE3FD0EE6
:100D0000DBCFE9FFFE0EDBCFEAFF210EE9260F0E57
:100D1000EA22EF1C8314836EE552E7CFD9FF12005D
:100D20001E0EF66E000EF76E000EF86E0F01090033
:100D3000F5501C6F0900F5501D6F03E11C6701D0D1
:100D40003DD00900F550176F0900F550186F0900E4
:100D5000F550196F09000900F550E96E0900F550CA
:100D6000EA6E090009000900F5501A6F0900F550F4
:100D70001B6F09000900F6CF1EFFF7CF1FFFF8CF4A
:100D800020FF17CFF6FF18CFF7FF19CFF8FF0F019D
:100D90001A5302E11B5307E00900F550EE6E1A07E3
:100DA000F8E21B07F9D71ECFF6FF1FCFF7FF20CFC2
:0E0DB000F8FF0F011C07000E1D5BBFD71200DD
:020DBE00B06A19
:100DC000190EAF6EAC8AAC94B886AC98AB8EAB887B
:100DD0009E9A9D8A9F9A949C948E1200D9CFE6FF8A
:100DE000E1CFD9FF9EA8FED7FE0EDB50AD6E9E98D8
:100DF000E552E7CFD9FF1200AECFFFF096EC05F039
:0E0E00000001F06FFFC0E6FFE9DFE5521200CF
:020E0E00056A73
:100E1000046A036A180EE76ED8900736083609365A
:100E20000336043605360C50035C0D5004580E5042
:100E3000055807E30C50035E0D50045A0E50055A36
:080E4000072AE72EEAD7120091
:080E4800936A816A1200D9CF00
:100E5000E6FFE1CFD9FFFE0EDB50090809E3FE0EE5
:100E6000DB50EA6A0C0FE96E0F0EEA22EF50816E3A
:080E7000E552E7CFD9FF1200A3
:080E7800056A046A100EE76E22
:100E8000D89008360936043605360D50045C0E50ED
:100E9000055805E30D50045E0E50055A082AE72E4A
:040EA000F0D7120075
:0C0EA400800EF36E00EE00F00F0E01D87F
:100EB0001200EA6002D0EE6AFCD7F350E96012003B
:040EC000EE6AFCD703
:0C0EC4001EEE00F02EEE00F0F86A019C1B
:100ED00090EC06F003EC00F034EC00F0FBD71200CD
:0E0EE000000000000000000000000100010002
:020EEE00383793
:100EF00030303932373731333731383730303932B3
:100F0000444337434235383730303932433333384E
:100F10004545383730303932413736444446383722
:0A0F200030303932394343303439A0
:060F2A0040792430191289
:050F3000027800100032
:080F35000102040810204080B5
:030F3D00010204AA
:090F40000810200101010101016A
:020000040030CA
:0100010008F6
:0100020001FC
:010003001EDE
:0100050001F9
:010006008079
:010008000FE8
:01000900C036
:01000A000FE6
:01000B00E014
:01000C000FE4
:01000D0040B2
:00000001FF
