:020000040000FA
:0600000090EF07F0120072
:020006001200E6
:060008005FEF05F012009D
:02000E000000F0
:0400100000000000EC
:06001800F5EF04F01200F8
:02001E000600DA
:10002000BC0F0000240F00000C000000B40F000003
:10003000440F000008000000AA0F00003A0F000063
:100040000A0000000E0000004C0F00000600000037
:100050004A0F000080000000600000003C0F00001C
:08006000F10000000E00000099
:08006800D9CFE6FFE1CFD9FF7B
:10007000E65250D8DF6A0A0EDF5C0DE2320EE66E01
:10008000E66A75D8E552E552DFCFE6FF55EC07F09A
:10009000E552DF2AF0D78090640EE66EE66A67D8F4
:1000A000E552E5528080320EE66EE66A60D8E5528F
:1000B000E5520F01536B96D8D0D80AD9CDD953CF7A
:1000C000E6FF55EC07F0E5520001F551F4E0F56B61
:1000D00086D969D953CFE9FFEA6AE9BEEA684C0ECE
:1000E000E9260F0EEA22EF500CE08090640EE66ED7
:1000F000E66A3DD8E552E5528080A00EE66E0F0E0E
:1001000003D0F40EE66E010EE66EB3EC03F0E5529A
:10011000E552D1D7D398D38AD38C0F01536B020EFB
:10012000526F546B929080806BEC06F052EC07F0AB
:10013000E4EC03F0F1EC04F00DEC07F0BFEC05F09B
:10014000100EE66E270EE66E4FEC02F0E552E55219
:1001500053CFE6FF55EC07F0E5527ED9E80EE66E88
:10016000030EE66EB3EC03F0E552E5521200D9CF70
:10017000E6FFE1CFD9FF040EE126DE6ADD6ADECFBD
:1001800010F0DDCF11F0FD0EDBCF12F0FE0EDBCF55
:1001900013F01250105C135011581AE2020EDB6A71
:1001A000030EDB6A020EDBCF10F0030EDBCF11F083
:1001B000A00E105C000E115806E2020EDB2A030EA0
:1001C000F1E3DB2AEFD7DF2A010ED9E3DB2AD7D709
:1001D000040EE15C02E2E16AE552E16EE552E7CF2E
:1001E000D9FF1200D9CFE6FFE1CFD9FF020EE126F9
:1001F0000F01545128E1DE6ADD6ADECF10F0DDCF59
:1002000011F0D890115004E6060E105C000E115843
:100210001AE2DFCFE6FFBDEC04F0E55200090EE084
:10022000DFCFE6FF03D9E552DECFE9FFDDCFEAFFFE
:100230004C0EE9260F0EEA22010EEF6EDF2A010EA8
:10024000DCE3DB2ADAD7020EE15C02E2E16AE55286
:10025000E16EE552E7CFD9FF1200FF0E0001F05D1D
:1002600026E0060EE76EF019E8AE02D0E73402D0C1
:10027000E750F05D1CE2610EE66E1CEC07F0E55203
:10028000300E0001F025E66E1CEC07F0E552F0C0E0
:10029000E6FFCCD8E552F0C0E9FFEA6AE9BEEA68B9
:1002A0004C0EE9260F0EEA22010EEF6E05D0060E67
:1002B000F05D05E10F01546B0001F0691200070EBB
:1002C000F05D05E10F01010E546F0001F0691200AD
:1002D00053CFE9FFEA6AE9BEEA684C0EE9260F0E41
:1002E000EA22EF6A53CF10F0116A10BE116810C0F5
:1002F000E6FF11C0E6FF96EC06F0E552E55212006B
:10030000D9CFE6FFE1CFD9FFE6520F015329DF6EC7
:10031000DFCF10F0060EE76E1018E8AE02D0E7341B
:1003200002D0E750105C0FE2DFCFE9FFEA6AE9BED6
:10033000EA684C0EE9260F0EEA22EF5002E0010EA9
:1003400003D0DF2AE5D7000EE552E552E7CFD9FF0B
:100350001200D9CFE6FFE1CFD9FFE6520F015305D6
:10036000DF6EDFCF10F0FF0EE76E1018E8AE02D0A0
:10037000103403D0E750D88010540FE2DFCFE9FFEC
:10038000EA6AE9BEEA684C0EE9260F0EEA22EF504F
:1003900002E0010E03D0DF06E4D7000EE552E5527D
:1003A000E7CFD9FF12000F0152510FE1532B050E79
:1003B000E76E5319E8AE02D0533503D0E750D8802A
:1003C00053550CE2050E536F1200520505E1530719
:1003D000533504E3536B1200020E525D12000F01FD
:1003E0005251020A13E0030A0AE0010A01E0120076
:1003F00087DF00090EE1ADDF000911E113D0A9DFAD
:1004000000090DE17DDF000904E10CD079DF00096E
:1004100003E00F01526B12009CDF000903E00F01A3
:10042000010E02D00F01020E526F1200D9CFE6FF6B
:10043000E1CFD9FFFE0EDBCF10F0116A10BE1168BC
:1004400010C0E6FF11C0E6FF6EEC06F0E552E55283
:10045000E552E7CFD9FF12000F01525109E1070E13
:10046000E66EE66A6EEC06F0E552E552060E10D036
:10047000520506E1060EE66EE66A6EEC06F005D061
:10048000060EE66EE66A96EC06F0E552E552070EB9
:0E049000E66EE66A96EC06F0E552E5521200C2
:02049E00D9CFB4
:1004A000E6FFE1CFD9FFD59EFD0EDBCFF1F0FE0ECA
:1004B000DBCFF2F0D59C13681468156AF1C016F012
:1004C000F2C017F0186A1650135C106E17501458CB
:1004D000116E18501558126E0C6A010E0D6E0E6AD0
:1004E00010C007F011C008F012C009F03EEC06F091
:1004F0000350D66E13681468156AF1C016F0F2C086
:1005000017F0186A1650135C106E17501458116EBD
:1005100018501558126E0C6A010E0D6E0E6A10C03E
:1005200007F011C008F012C009F03EEC06F007C059
:1005300010F008C011F009C012F00750D76ED59A1C
:10054000D586F28AF294F184D58EE552E7CFD9FFB1
:100550001200D59E120013681468156AF1C016F0D7
:10056000F2C017F0186A1650135C106E175014582A
:10057000116E18501558126E0C6A010E0D6E0E6A2F
:1005800010C007F011C008F012C009F03EEC06F0F0
:100590000350D66E13681468156AF1C016F0F2C0E5
:1005A00017F0186A1650135C106E17501458116E1D
:1005B00018501558126E0C6A010E0D6E0E6A10C09E
:1005C00007F011C008F012C009F03EEC06F007C0B9
:1005D00010F008C011F009C012F00750D76ED58E88
:1005E0001200D9CFE6FFE1CFD9FFCD90FD0EDBCFD2
:1005F000F3F0FE0EDBCFF4F013681468156AF3C055
:1006000016F0F4C017F0186A1650135C106E1750ED
:100610001458116E18501558126E0C6A010E0D6E9A
:100620000E6A10C007F011C008F012C009F03EECCD
:1006300006F00750CF6E13681468156AF3C016F001
:10064000F4C017F0186A1650135C106E1750145847
:10065000116E18501558126E0C6A010E0D6E0E6A4E
:1006600010C007F011C008F012C009F03EEC06F00F
:1006700003C010F004C011F005C012F00350CE6E9C
:100680009D809E909F90CD8ECD9CCD98CD9ACD96FD
:10069000CD92CD80E552E7CFD9FF120013681468E0
:1006A000156AF3C016F0F4C017F0186A1650135C00
:1006B000106E17501458116E18501558126E0C6A9F
:1006C000010E0D6E0E6A10C007F011C008F012C0C6
:1006D00009F03EEC06F00750CF6E13681468156AF7
:1006E000F3C016F0F4C017F0186A1650135C106EC1
:1006F00017501458116E18501558126E0C6A010ECE
:100700000D6E0E6A10C007F011C008F012C009F09B
:100710003EEC06F003C010F004C011F005C012F06A
:100720000350CE6ECD801200CD9012000001F72B49
:10073000000EF823FB51F75DFC51F85904E3F76B09
:10074000F86B010EF56FE7EF03F00001F92B000ED7
:10075000FA23FD51F95DFE51FA5904E3F96BFA6B86
:10076000010EF66F1200D9CFE6FFE1CFD9FFFD0EE3
:10077000DBCFFBF0FE0EDBCFFCF00A0E0D6E0E6A37
:10078000FBC008F0FCC009F018EC06F008C0FBF054
:1007900009C0FCF00001F76BF86BF56BE552E7CF91
:1007A000D9FF1200D9CFE6FFE1CFD9FFFD0EDBCF95
:1007B000FDF0FE0EDBCFFEF00001F96BFA6BF66B7D
:0807C000E552E7CFD9FF12005A
:0807C800946882681200D9CF89
:1007D000E6FFE1CFD9FFE652DF6A060EDF5C01E3F8
:1007E000AAD0DF50EA6A000FE96E0F0EEA22EF503E
:1007F000E66EDF50EA6A060FE96E0F0EEA22E55256
:10080000E750EF6EDF50EA6A240FE96E0F0EEA221E
:10081000EF508214E66EDF50EA6A000FE96E0F0EA9
:10082000EA22E552E750EF6EDF50EA6A000FE96E08
:100830000F0EEA22EFCF10F0DF50EA6A060FE96EE2
:100840000F0EEA22EF50105C74E1DF50EA6A000FED
:10085000E96E0F0EEA22EF50E66EDF50EA6A2A0FC9
:10086000E96E0F0EEA22E552E750EF6EDF50EA6ABA
:100870002A0FE96E0F0EEA22EF5028E1EA6ADF3410
:10088000FE0BEA36E96E180EE9260F0EEA22EECFCD
:1008900010F0EFCF11F0C80E105C000E11580DE2F1
:1008A000EA6ADF34FE0BEA36E96E180EE9260F0E0F
:1008B000EA22EE2A000EEF223CD0DF50EA6A120F45
:1008C000E96E0F0EEA22010EEF6E33D0EA6ADF34D2
:1008D000FE0BEA36E96E180EE9260F0EEA22EE50FC
:1008E000ED1008E0DF50EA6A120FE96E0F0EEA22FF
:1008F000EF5002E0000E01D0010EE66EDF50EA6A12
:100900000C0FE96E0F0EEA22E552E750EF6EEA6A2D
:10091000DF34FE0BEA36E96E180EE9260F0EEA22E6
:10092000EE6AED6ADF50EA6A120FE96E0F0EEA22F4
:10093000EF6ADF2A52D7E552E552E7CFD9FF12001E
:10094000D9CFE6FFE1CFD9FF060EF36EFE0EDBCF67
:10095000F4FFF350F45C02E3000E0BD0FE0EEA6AE3
:10096000DB34FE0BEA36E96E180EE9260F0EEA229A
:10097000EF50E552E7CFD9FF1200D9CFE6FFE1CF24
:10098000D9FF060EF36EFE0EDBCFF4FFF350F45CDE
:1009900002E3000E08D0FE0EDB50EA6A0C0FE96E8F
:1009A0000F0EEA22EF50E552E7CFD9FF1200D9CF60
:1009B000E6FFE1CFD9FF060EF36EFE0EDBCFF4FFAC
:1009C000F350F45C02E3FF0E08D0FE0EDB50EA6A3F
:1009D000120FE96E0F0EEA22EF50E552E7CFD9FF72
:0209E000120003
:0E09E200F28ED08EF28C1200D8CFE4FFE0CF60
:1009F000E4FFE46EDACFE4FFE2CFDAFFE9CFE4FF11
:100A0000EACFE4FFF6CFE4FFF7CFE4FFF5CFE4FF52
:100A1000F3CFE4FFF4CFE4FFFACFE4FF00EE00F001
:100A2000100EE80403E3EECFE4FFFBD700EE10F076
:100A3000090EE80403E3EECFE4FFFBD7E652F2A48D
:100A400007D0A9EC02F0F294ABEC02F096EC03F0C4
:100A50009EA007D094EC03F09E904EEC03F0A5EC22
:100A600003F09EAA03D09E9A2AEC07F0E55200EE0E
:100A700018F0090EE80403E3E5CFEDFFFBD700EE25
:100A80000FF0100EE80403E3E5CFEDFFFBD7E5CF51
:100A9000FAFFE5CFF4FFE5CFF3FFE5CFF5FFE5CFB4
:100AA000F7FFE5CFF6FFE5CFEAFFE5CFE9FFE5CFBA
:100AB000DAFFE550E5CFE0FFE5CFD8FF1000DACF51
:100AC000E4FFE2CFDAFFE9CFE4FFEACFE4FFF6CFBD
:100AD000E4FFF7CFE4FFF5CFE4FFF3CFE4FFF4CF7B
:100AE000E4FFFACFE4FF00EE00F0100EE80403E3A9
:100AF000EECFE4FFFBD700EE10F0090EE80403E3AD
:100B0000EECFE4FFFBD7E652F2A407D0A9EC02F047
:100B1000F294ABEC02F096EC03F09EA007D094ECBC
:100B200003F09E904EEC03F0A5EC03F09EAA03D0D8
:100B30009E9A2AEC07F0E55200EE18F0090EE80440
:100B400003E3E5CFEDFFFBD700EE0FF0100EE80456
:100B500003E3E5CFEDFFFBD7E5CFFAFFE5CFF4FFE9
:100B6000E5CFF3FFE5CFF5FFE5CFF7FFE5CFF6FFE4
:0E0B7000E5CFEAFFE5CFE9FFE5CFDAFF1100A0
:020B7E00000174
:100B8000E06BED6BF06912000001E051020A1CE01D
:100B9000030A0BE0010A4AE1020E0001FF5D47E192
:100BA0000001010EE06FED6BFF0CED51EA6AE10F01
:100BB000E96E000EEA22FFC0EFFFED2B0C0EED5D9B
:100BC00036E3020EE06FFF0CEE6B080EEE5D2CE2DA
:100BD000EF6B0C0EEF5D1FE2EF51EA6AE10FE96E79
:100BE000000EEA22EFCF10F0EE510C0DF3CF11F012
:100BF000F4CF12F0800E1126000E1222EF510F01D9
:100C00001124E96E000E1220EA6EEF50105C03E131
:100C10000001EF2BDED70C0E0001EF5D03E1E06B6E
:100C2000EE511200EE2BD1D7E06BFF0CE06BFF0C06
:100C3000006A0EAE21EF06F00D6C0E1EE86A0E2261
:100C4000001E09AE29EF06F0086C091EE86A0922A9
:100C5000001E6AEC07F009BE39EF06F000AE000C8A
:100C6000086C091EE86A0922046C051EE86A052260
:100C7000000C00BE30EF06F00188FF0C006A0EAEDB
:100C800049EF06F00C6C0D1E0E1EE86A0D220E22B6
:100C9000001E09AE53EF06F0076C081E091EE86A35
:100CA00008220922001E35EC07F009BE66EF06F0A7
:100CB00000AE000C076C081E091EE86A0822092213
:100CC000036C041E051E04220522000C00BE5AEF10
:060CD00006F00188FF0C94
:0A0CD600956A836A1200D9CFE6FF89
:100CE000E1CFD9FFFE0EDBCF11F0800E11141AE117
:100CF000FD0EDBCF12F0FE0EDBCF13F0133404E257
:100D000012500708000E13540DE3FD0EDBCFE9FF70
:100D1000FE0EDBCFEAFF440EE9260F0EEA22EF506B
:100D20008310836EE552E7CFD9FF1200D9CFE6FFDB
:100D3000E1CFD9FFFE0EDBCF11F0800E11141AE1C6
:100D4000FD0EDBCF12F0FE0EDBCF13F0133404E206
:100D500012500708000E13540DE3FD0EDBCFE9FF20
:100D6000FE0EDBCFEAFF440EE9260F0EEA22EF1C4F
:0C0D70008314836EE552E7CFD9FF120018
:040D7C001E0EF66EE3
:100D8000000EF76E000EF86E0F010900F550356F7A
:100D90000900F550366F03E1356701D03DD00900F9
:100DA000F550306F0900F550316F0900F550326F82
:100DB00009000900F550E96E0900F550EA6E0900D6
:100DC00009000900F550336F0900F550346F090030
:100DD0000900F6CF37FFF7CF38FFF8CF39FF30CF14
:100DE000F6FF31CFF7FF32CFF8FF0F01335302E1A7
:100DF000345307E00900F550EE6E3307F8E234078C
:100E0000F9D737CFF6FF38CFF7FF39CFF8FF0F010B
:0A0E10003507000E365BBFD7120055
:060E1A00B06A190EAF6E74
:100E2000AC8AAC94B886AC98AB8EAB889E9A9D8AFF
:100E30009F9A949C948E1200D9CFE6FFE1CFD9FF00
:100E40009EA8FED7FE0EDB50AD6E9E98E552E7CF12
:100E5000D9FF1200AECFFFF0C4EC05F00001F06F37
:0A0E6000FFC0E6FFE9DFE5521200D3
:060E6A00056A046A036A38
:100E7000180EE76ED8900736083609360336043662
:100E800005360C50035C0D5004580E50055807E30E
:100E90000C50035E0D50045A0E50055A072AE72ED7
:040EA000EAD712007B
:0C0EA400936A816A1200D9CFE6FFE1CF0B
:100EB000D9FFFE0EDB50090809E3FE0EDB50EA6A9B
:100EC0003A0FE96E0F0EEA22EF50816EE552E7CF3E
:040ED000D9FF120034
:0C0ED400056A046A100EE76ED89008361C
:100EE0000936043605360D50045C0E50055805E3EE
:100EF0000D50045E0E50055A082AE72EF0D7120056
:100F0000800EF36E00EE00F00F0E01D81200EA60C2
:100F100002D0EE6AFCD7F350E9601200EE6AFCD70B
:100F20001EEE00F02EEE00F0F86A019CBEEC06F01A
:0C0F300003EC00F034EC00F0FBD71200E2
:040F3C0000000000B1
:0A0F400000000000000001000100A5
:060F4A0038373030393267
:100F5000373731333731383730303932444337431C
:100F600042353837303039324333333845453837F6
:100F700030303932413736444446383730303932F0
:100F800039434330343938373030393239424632D8
:100F90003743383730303831303231333137383702
:0A0FA0003030374631443730393520
:060FAA0040792430191209
:040FB00002780010B3
:080FB400010204081020408036
:040FBC000102040822
:080FC0001020010101010101F3
:020000040030CA
:0100010008F6
:0100020001FC
:010003001EDE
:0100050001F9
:010006008079
:010008000FE8
:01000900C036
:01000A000FE6
:01000B00E014
:01000C000FE4
:01000D0040B2
:00000001FF
