:020000040000FA
:06000000AFEF04F0120056
:020006001200E6
:0600080095EF02F012006A
:02000E000000F0
:0400100000000000EC
:0400140000000000E8
:0600180062EF02F012008D
:02001E000600DA
:100020009A09000080000000110000001400000088
:10003000C10000000400000092090000B3000000AD
:100040000800000088090000A90000000A00000064
:100050000E000000BB000000060000007A0900004E
:08006000910000000E000000F9
:080068000AD80001010E48D97D
:100070000001020E45D90001030E42D9F6D7000156
:10008000C66B020EC56F926A806A0AEF04F049D906
:10009000040EE126DE6ADD6ADECF10F0DDCF11F05E
:1000A000FD0EDBCF12F0FE0EDBCF13F01250105C12
:1000B000135011581DE2020EDB6A030EDB6A020EBA
:1000C000DBCF10F0030EDBCF11F0D890115004E617
:1000D000A00E105C000E115806E2020EDB2A030E81
:1000E000EEE3DB2AECD7DF2A010ED6E3DB2AD4D7F6
:1000F000040EE15C02E2E16AE552E16E17D111D92A
:10010000020EE126DE6ADD6ADECF10F0DDCF11F0EF
:10011000D890115004E6060E105C000E11581EE235
:10012000DECFE9FFDDCFEAFFD890E936EA36800E70
:10013000E926000EEA22EE50ED100BE0DFCFE6FFDD
:10014000AED8E552DECFE9FFDDCFEAFFF3D8010EEE
:10015000EF6EDF2A010ED8E3DB2AD6D7020EE15C70
:1001600002E2E16AE552E16EE1D0C6C0E9FFEA6A67
:10017000E9BEEA68DFD8EF6AC6C010F0116A10BEA7
:10018000116810C0E6FF11C0E6FF1EEC04F0E55256
:10019000E5521200C6D8E6520001C629DF6EDFCF55
:1001A00010F0060EE76E1018E8AE02D0E73402D069
:1001B000E750105C0CE2DFCFE9FFEA6AE9BEEA68CB
:1001C000B9D8EF5002E0010E03D0DF2AE8D7000EC5
:1001D000E552ACD0A6D8E6520001C605DF6EDFCFEF
:1001E00010F0FF0EE76E1018E8AE02D0103403D006
:1001F000E750D88010540CE2DFCFE9FFEA6AE9BE8D
:10020000EA6898D8EF5002E0010E03D0DF06E7D786
:10021000000EE5528BD00001C5050FE1C62B050E7F
:10022000E76EC619E8AE02D0C63503D0E750D880D5
:10023000C6550DE2050EC66F1200020EC55D05E142
:10024000C607C63504E3C66B1200030EC55D120077
:100250000001C551030A13E0010A0AE0030A01E0A4
:10026000120098DF00090EE1B5DF000911E113D09B
:10027000B1DF00090DE18EDF00090DE003D08ADF58
:10028000000903E00001010E08D0A4DF000903E02B
:100290000001020E02D00001030EC56F120041D80A
:1002A000FE0EDBCF10F0116A10BE116810C0E6FF21
:1002B00011C0E6FF0DEC04F0E552E55237D0000125
:1002C000C60506E10F0E806E060E24D8070E08D074
:1002D000020EC65D0AE1F00E806E070E1BD8060EF8
:1002E000E66EE66A1EEC04F008D0806A060E12D8AC
:1002F000070EE66EE66A0DEC04F0E552E5521200D8
:10030000C56FDDDF900EE66E010EE66EC0DEE552D3
:10031000E5521200E66EE66A0DEC04F0E552E55295
:100320001200D9CFE6FFE1CFD9FF1200E552E7CFA7
:0E033000D9FF1200BB0EE926000EEA221200D1
:02033E009BD84A
:10034000D59EFD0EDBCF91F0FE0EDBCF92F0D59C5B
:100350009BD8D59AD586F28AF294F184D58E90D026
:10036000D59E120091D8D58E120085D8CD90FD0E65
:10037000DBCF93F0FE0EDBCF94F08CD89D809E9067
:100380009F90CD8ECD8CCD88CD8ACD96CD92CD80CF
:1003900077D080D8CD801200CD9012000001972B2D
:1003A000000E98239B51975D9C51985904E3976BDD
:1003B000986B010E956F12000001992B000E9A2385
:1003C0009D51995D9E519A5904E3996B9A6B010E68
:1003D000966F120050D8FD0EDBCF9BF0FE0EDBCFE8
:1003E0009CF00001976B986B956B4AD044D8FD0E3A
:1003F000DBCF9DF0FE0EDBCF9EF0020E0D6E0E6A7F
:100400009DC008F09EC009F068EC03F008C09DF0A4
:1004100009C09EF00001996B9A6B966B31D0186AF7
:100420001650135C106E17501458116E1850155852
:10043000126E0C6A010E0D6E0E6A10C007F011C02C
:1004400008F012C009F08EEF03F013681468156A03
:10045000120007C010F008C011F009C012F00750D8
:10046000D76E120003C010F004C011F005C012F0E6
:100470000350CE6E1200D9CFE6FFE1CFD9FF1200B4
:10048000E552E7CFD9FF12000BD80350D66E08D83B
:1004900029EF02F00CD80750CF6E09D832EF02F0E6
:1004A000D4DF91C016F092C017F00FEF02F0CDDF4D
:0C04B00093C016F094C017F00FEF02F09C
:0404BC00F28ED08E5E
:1004C000F28C1200D8CFE4FFE0CFE4FFE46E56D800
:1004D00000EE00F0100EE80403E3EECFE4FFFBD7DC
:1004E00000EE10F0090EE80403E3EECFE4FFFBD7C3
:1004F000E652F2B46BD89EB070D8E55200EE18F018
:10050000090EE80403E3E5CFEDFFFBD700EE0FF0A3
:10051000100EE80403E3E5CFEDFFFBD744D8E55028
:10052000E5CFE0FFE5CFD8FF100028D800EE00F0BF
:10053000100EE80403E3EECFE4FFFBD700EE10F06B
:10054000090EE80403E3EECFE4FFFBD7E652F2B472
:100550003DD89EB042D8E55200EE18F0090EE804EE
:1005600003E3E5CFEDFFFBD700EE0FF0100EE8043C
:1005700003E3E5CFEDFFFBD716D81100DACFE4FF98
:10058000E2CFDAFFE9CFE4FFEACFE4FFF6CFE4FF02
:10059000F7CFE4FFF5CFE4FFF3CFE4FFF4CFE4FFC0
:1005A000FACFE4FF1200E5CFFAFFE5CFF4FFE5CF85
:1005B000F3FFE5CFF5FFE5CFF7FFE5CFF6FFE5CF9A
:1005C000EAFFE5CFE9FFE5CFDAFF1200B0EC01F07A
:1005D000F294B2EC01F0CEEF01F0CCEC01F09E9081
:0805E000C9EC01F0DCEF01F0B1
:0805E8000F0E946E82681200F0
:1005F000D9CFE6FFE1CFD9FF040EE126DE6ADD6A3E
:10060000DECF10F0DDCF11F0D890115004E6030ECC
:10061000105C000E11583BE2DECFE9FFDDCFEAFFB0
:100620008C0EE926000EEA22EF1C826E020EDB6AB7
:10063000030EDB6A020EDBCF10F0030EDBCF11F0EE
:10064000D890115004E6020E105C000E11581AE208
:10065000020EDBCFE9FF030EDBCFEAFF8F0EE926A8
:10066000000EEA22EF50821404E11BD8010EEE6E58
:1006700002D017D8EE6AED6A020EDB2A030EDAE327
:10068000DB2AD8D7DF2A010EBBE3DB2AB9D7040E59
:10069000E15C02E2E16AE552E16EE552E7CFD9FFA3
:1006A0001200DECF10F0DDCF11F0D89010361136E9
:1006B000020EDB501024E96E030EDB501120EA6EAF
:1006C000D890E936EA36800EE926000EEA221200BA
:1006D000006A0EAE71EF03F00D6C0E1EE86A0E227A
:1006E000001E09AE79EF03F0086C091EE86A0922C2
:1006F000001E89EC04F009BE89EF03F000AE000C87
:10070000086C091EE86A0922046C051EE86A0522C5
:10071000000C00BE80EF03F00188FF0C006A0EAEF3
:1007200099EF03F00C6C0D1E0E1EE86A0D220E22CE
:10073000001E09AEA3EF03F0076C081E091EE86A4D
:1007400008220922001E6CEC04F009BEB6EF03F08B
:1007500000AE000C076C081E091EE86A0822092278
:10076000036C041E051E04220522000C00BEAAEF25
:0607700003F00188FF0CFC
:0A0776001E0EF66E000EF76E000E68
:10078000F86E00010900F550A46F0900F550A56F3F
:1007900003E1A46701D03DD00900F5509F6F090027
:1007A000F550A06F0900F550A16F09000900F55040
:1007B000E96E0900F550EA6E090009000900F550DC
:1007C000A26F0900F550A36F09000900F6CFA6F04B
:1007D000F7CFA7F0F8CFA8F09FC0F6FFA0C0F7FFB3
:1007E000A1C0F8FF0001A25302E1A35307E00900F2
:1007F000F550EE6EA207F8E2A307F9D7A6C0F6FF00
:10080000A7C0F7FFA8C0F8FF0001A407000EA55B72
:04081000BFD712003C
:0C081400956A836A12002CD80BE134D8DE
:1008200004E212500708000E135404E318D8EF50E6
:100830008310836EE552E7CFD9FF12001BD80BE17E
:1008400023D804E212500708000E135404E307D81B
:10085000EF1C8314836EE552E7CFD9FF1200FD0E23
:10086000DBCFE9FFFE0EDBCFEAFFB30EE926000E79
:10087000EA221200D9CFE6FFE1CFD9FFFE0EDBCF8F
:1008800011F0800E11141200FD0EDBCF12F0FE0EDF
:08089000DBCF13F0133412005A
:08089800936A816A1200D9CFB6
:1008A000E6FFE1CFD9FF000EF36EFE0EDBCFF4FFC3
:1008B000F350F45C0DE3FE0EDB50090809E3FE0E75
:1008C000DB50EA6AA90FE96E000EEA22EF50816E52
:0808D000E552E7CFD9FF120049
:0808D800056A046A036A180EA8
:1008E000E76ED890073608360936033604360536E3
:1008F0000C50035C0D5004580E50055807E30C5083
:10090000035E0D50045A0E50055A072AE72EEAD707
:020910001200D3
:0E091200056A046A100EE76ED89008360936A2
:10092000043605360D50045C0E50055805E30D5095
:0E093000045E0E50055A082AE72EF0D712007A
:02093E00800E29
:10094000F36E00EE00F00F0E01D81200EA6002D044
:0E095000EE6AFCD7F350E9601200EE6AFCD7A5
:02095E001EEE8B
:1009600000F02EEE00F0F86A019CBBEC03F003EC03
:0A09700000F034EC00F0FBD7120099
:06097A0000000000000077
:0809800000000000010001006D
:080988004079243019120278B5
:02099000001055
:0809920001020408102040805E
:06099A0000000000000057
:0B09A0000000000000001020400102D9
:020000040030CA
:0100010002FC
:0100020003FA
:010003001EDE
:010005008179
:010006008178
:010008000FE8
:01000900C036
:01000A000FE6
:01000B00E014
:01000C000FE4
:01000D0040B2
:00000001FF
