:020000040000FA
:060000001EEF08F01200E3
:020006001200E6
:06000800EDEF05F012000F
:02000E000001EF
:080010000203000000000000E3
:0600180083EF05F0120069
:02001E000600DA
:10002000D8100000240F00000C000000D0100000C9
:100030004E0F000008000000C6100000440F000032
:100040000A0000000E0000003A0F00000A00000045
:1000500066100000800000006000000058100000E2
:08006000F10000000E00000099
:080068004FD80F015B6B0A0E7B
:100070005B5D0EE2320EE66EE66A75D8E552E55239
:100080005BCFE6FFE3EC07F0E5520F015B2BEFD708
:100090008090640EE66EE66A66D8E552E55280808E
:1000A000320EE66EE66A5FD8E552E5520F01586BF4
:1000B00055DA58CFE6FFE3EC07F0E552B1D900017D
:1000C000F551F6E0F56BFBD958CFE9FFEA6AE9BED6
:1000D000EA683E0EE9260F0EEA22EF500CE080900F
:1000E000640EE66EE66A3FD8E552E5528080A00EC7
:1000F000E66E0F0E03D0F40EE66E010EE66E35ECE2
:1001000004F0E552E552D4D7D398D38AD38C0F01AB
:10011000586B020E576F566B596B5A6B92908080DA
:10012000F9EC06F0E0EC07F066EC04F07FEC05F08B
:100130009BEC07F04DEC06F0100EE66E270EE66E17
:10014000D1EC02F0E552E55258CFE6FFE3EC07F0C0
:10015000E55204DAE80EE66E030EE66E35EC04F0C6
:10016000E552E5521200D9CFE6FFE1CFD9FF040EE8
:10017000E126DE6ADD6ADECF10F0DDCF11F0FD0E84
:10018000DBCF12F0FE0EDBCF13F01250105C1350D9
:1001900011581AE2020EDB6A030EDB6A020EDBCF95
:1001A00010F0030EDBCF11F0A00E105C000E115802
:1001B00006E2020EDB2A030EF1E3DB2AEFD7DF2A89
:1001C000010ED9E3DB2AD7D7040EE15C02E2E16A33
:1001D000E552E16EE552E7CFD9FF1200D9CFE6FF35
:1001E000E1CFD9FF020EE126DE6ADD6ADECF10F034
:1001F000DDCF11F0D890115004E6060E105C000E11
:1002000011581AE2DFCFE6FF3FEC05F0E552000996
:100210000EE0DFCFE6FF8CD9E552DECFE9FFDDCF80
:10022000EAFF3E0EE9260F0EEA22010EEF6EDF2AEC
:10023000010EDCE3DB2ADAD7020EE15C02E2E16ABE
:10024000E552E16EE552E7CFD9FF1200FF0E000143
:10025000F05D28E0060EE76EF019E8AE02D0E73454
:1002600002D0E750F05D1EE2610EE66EAAEC07F0E8
:10027000E552300E0001F025E66EAAEC07F0E552DB
:10028000F0C0E6FF55D9E552F0C0E9FFEA6AE9BEE1
:10029000EA683E0EE9260F0EEA22010EEF6E00011B
:1002A000F0691200060EF05D15E18090640EE66EB6
:1002B000E66A59DFE552E5528080A00EE66E0F0E29
:1002C000E66E35EC04F0E552E5520F01010E596F70
:1002D0000001F069120058CFE9FFEA6AE9BEEA6856
:1002E0003E0EE9260F0EEA22EF6A58CF10F0116A8F
:1002F00010BE116810C0E6FF11C0E6FF24EC07F045
:10030000E552E5521200D9CFE6FFE1CFD9FFE65220
:10031000DF6A060EDF5C10E2DF50EA6A3E0FE96E2C
:100320000F0EEA22EF6ADFCFE6FFE66A24EC07F061
:10033000E552E552DF2AEDD7E552E552E7CFD9FF86
:100340001200D9CFE6FFE1CFD9FFE6520F015829BD
:10035000DF6EDFCF10F0060EE76E1018E8AE02D0A9
:10036000E73402D0E750105C0FE2DFCFE9FFEA6A22
:10037000E9BEEA683E0EE9260F0EEA22EF5002E0DF
:10038000010E03D0DF2AE5D7000EE552E552E7CF94
:10039000D9FF1200D9CFE6FFE1CFD9FFE6520F0116
:1003A0005805DF6EDFCF10F0FF0EE76E1018E8AED5
:1003B00002D0103403D0E750D88010540FE2DFCFC2
:1003C000E9FFEA6AE9BEEA683E0EE9260F0EEA2274
:1003D000EF5002E0010E03D0DF06E4D7000EE55235
:1003E000E552E7CFD9FF12000F0157510FE1582B0B
:1003F000050EE76E5819E8AE02D0583503D0E75025
:10040000D88058550CE2050E586F1200570505E1CB
:100410005807583504E3586B1200020E575D12005E
:100420000F015651030A40E0010A19E0030A0BE0EC
:10043000010A01E0120067DF0F015A5102E1010ECB
:100440000CD0030E0AD0CADE46DF00DF0F0159517F
:1004500035E05B6B58DF0F01020E566F1200596BCF
:100460005C6B060E5C5D15E25CCFE6FF3FEC05F0D1
:10047000E55200090BE05CCFE6FF5AD8E5520F01C8
:100480005B515C5D02E15B2B01D0566B0F015C2B75
:10049000E8D7040E5B5D12E15A5102E0000E01D074
:1004A000010E5A6F566B1200D1DE15DF0F01595144
:1004B00005E05B6B28DF0F01020E566F12000F0183
:1004C0005751020A25E0030A18E0010A01E0120070
:1004D000582B050EE76E5819E8AE02D0583503D0F8
:1004E000E750D880585502E2050E586F2ADF000900
:1004F00012E150DF000915E117D05807583501E324
:10050000586B48DF00090DE11CDF000904E10CD045
:1005100018DF000903E00F01576B12003BDF0009F1
:1005200003E00F01010E02D00F01020E576F1200FF
:10053000D9CFE6FFE1CFD9FFFE0EDBCF10F0116A75
:1005400010BE116810C0E6FF11C0E6FFFCEC06F01B
:10055000E552E552E552E7CFD9FF12000F0157519E
:1005600009E1070EE66EE66AFCEC06F0E552E5529C
:10057000060E10D0570506E1060EE66EE66AFCECA4
:1005800006F005D0060EE66EE66A24EC07F0E552AA
:10059000E552070EE66EE66A24EC07F0E552E552F6
:0205A000120047
:0E05A200D9CFE6FFE1CFD9FFD59EFD0EDBCF0E
:1005B000F1F0FE0EDBCFF2F0D59C13681468156ADB
:1005C000F1C016F0F2C017F0186A1650135C106EE6
:1005D00017501458116E18501558126E0C6A010EEF
:1005E0000D6E0E6A10C007F011C008F012C009F0BD
:1005F000CCEC06F00350D66E13681468156AF1C08F
:1006000016F0F2C017F0186A1650135C106E1750EF
:100610001458116E18501558126E0C6A010E0D6E9A
:100620000E6A10C007F011C008F012C009F0CCEC3F
:1006300006F007C010F008C011F009C012F0075012
:10064000D76ED59AD586F28AF294F184D58EE5528A
:10065000E7CFD9FF1200D59E120013681468156AFF
:10066000F1C016F0F2C017F0186A1650135C106E45
:1006700017501458116E18501558126E0C6A010E4E
:100680000D6E0E6A10C007F011C008F012C009F01C
:10069000CCEC06F00350D66E13681468156AF1C0EE
:1006A00016F0F2C017F0186A1650135C106E17504F
:1006B0001458116E18501558126E0C6A010E0D6EFA
:1006C0000E6A10C007F011C008F012C009F0CCEC9F
:1006D00006F007C010F008C011F009C012F0075072
:1006E000D76ED58E1200D9CFE6FFE1CFD9FFCD90DE
:1006F000FD0EDBCFF3F0FE0EDBCFF4F013681468D1
:10070000156AF3C016F0F4C017F0186A1650135C9F
:10071000106E17501458116E18501558126E0C6A3E
:10072000010E0D6E0E6A10C007F011C008F012C065
:1007300009F0CCEC06F00750CF6E13681468156A08
:10074000F3C016F0F4C017F0186A1650135C106E60
:1007500017501458116E18501558126E0C6A010E6D
:100760000D6E0E6A10C007F011C008F012C009F03B
:10077000CCEC06F003C010F004C011F005C012F07C
:100780000350CE6E9D809E909F90CD8ECD9CCD9837
:10079000CD9ACD96CD92CD80E552E7CFD9FF12000C
:1007A00013681468156AF3C016F0F4C017F0186ADD
:1007B0001650135C106E17501458116E18501558BF
:1007C000126E0C6A010E0D6E0E6A10C007F011C099
:1007D00008F012C009F0CCEC06F00750CF6E136899
:1007E0001468156AF3C016F0F4C017F0186A1650B2
:1007F000135C106E17501458116E18501558126E65
:100800000C6A010E0D6E0E6A10C007F011C008F0E0
:1008100012C009F0CCEC06F003C010F004C011F0D7
:1008200005C012F00350CE6ECD801200CD901200A4
:100830000001F72B000EF823FB51F75DFC51F8592E
:1008400004E3F76BF86B010EF56F69EF04F000013C
:10085000F92B000EFA23FD51F95DFE51FA5904E31C
:10086000F96BFA6B010EF66F1200D9CFE6FFE1CFFC
:10087000D9FFFD0EDBCFFBF0FE0EDBCFFCF00A0E46
:100880000D6E0E6AFBC008F0FCC009F0A6EC06F085
:1008900008C0FBF009C0FCF00001F76BF86BF56BCA
:1008A000E552E7CFD9FF1200D9CFE6FFE1CFD9FF5C
:1008B000FD0EDBCFFDF0FE0EDBCFFEF00001F96B8D
:0C08C000FA6BF66BE552E7CFD9FF12008F
:0408CC009468826842
:1008D0001200D9CFE6FFE1CFD9FFE652DF6A060E5C
:1008E000DF5C01E3AAD0DF50EA6A000FE96E0F0E69
:1008F000EA22EF50E66EDF50EA6A060FE96E0F0E4D
:10090000EA22E552E750EF6EDF50EA6A240FE96E03
:100910000F0EEA22EF508214E66EDF50EA6A000FF3
:10092000E96E0F0EEA22E552E750EF6EDF50EA6AF9
:10093000000FE96E0F0EEA22EFCF10F0DF50EA6AE7
:10094000060FE96E0F0EEA22EF50105C74E1DF50E3
:10095000EA6A000FE96E0F0EEA22EF50E66EDF50F2
:10096000EA6A2A0FE96E0F0EEA22E552E750EF6EAF
:10097000DF50EA6A2A0FE96E0F0EEA22EF5028E1F3
:10098000EA6ADF34FE0BEA36E96E180EE9260F0E2E
:10099000EA22EECF10F0EFCF11F0C80E105C000E7F
:1009A00011580DE2EA6ADF34FE0BEA36E96E180EE2
:1009B000E9260F0EEA22EE2A000EEF223CD0DF508D
:1009C000EA6A120FE96E0F0EEA22010EEF6E33D0C3
:1009D000EA6ADF34FE0BEA36E96E180EE9260F0EDE
:1009E000EA22EE50ED1008E0DF50EA6A120FE96EDD
:1009F0000F0EEA22EF5002E0000E01D0010EE66E6B
:100A0000DF50EA6A0C0FE96E0F0EEA22E552E7505A
:100A1000EF6EEA6ADF34FE0BEA36E96E180EE9265D
:100A20000F0EEA22EE6AED6ADF50EA6A120FE96EF3
:100A30000F0EEA22EF6ADF2A52D7E552E552E7CFDE
:100A4000D9FF1200D9CFE6FFE1CFD9FF060EF36E32
:100A5000FE0EDBCFF4FFF350F45C02E3000E0BD08C
:100A6000FE0EEA6ADB34FE0BEA36E96E180EE92662
:100A70000F0EEA22EF50E552E7CFD9FF1200D9CF8F
:100A8000E6FFE1CFD9FFE652FE0EDB50EA6A0C0F1B
:100A9000E96E0F0EEA22EFCFDFFF060EF36EFE0EB9
:100AA000DBCFF4FFF350F45C02E3000E09D0FE0E3E
:100AB000DB50EA6A0C0FE96E0F0EEA22EF6ADF5094
:100AC000E552E552E7CFD9FF1200D9CFE6FFE1CFDB
:100AD000D9FF060EF36EFE0EDBCFF4FFF350F45C8D
:100AE00002E3FF0E08D0FE0EDB50EA6A120FE96E39
:0E0AF0000F0EEA22EF50E552E7CFD9FF1200B9
:020AFE00F28E76
:100B0000D08EF28C1200D8CFE4FFE0CFE4FFE46E89
:100B1000DACFE4FFE2CFDAFFE9CFE4FFEACFE4FF88
:100B2000F6CFE4FFF7CFE4FFF5CFE4FFF3CFE4FF28
:100B3000F4CFE4FFFACFE4FF00EE00F0100EE8047B
:100B400003E3EECFE4FFFBD700EE10F0090EE8045C
:100B500003E3EECFE4FFFBD7E652F2A407D02BEC81
:100B600003F0F2942DEC03F018EC04F09EA007D0F3
:100B700016EC04F09E90D0EC03F027EC04F09EAA53
:100B800003D09E9AB8EC07F0E55200EE18F0090E7B
:100B9000E80403E3E5CFEDFFFBD700EE0FF0100E06
:100BA000E80403E3E5CFEDFFFBD7E5CFFAFFE5CFA0
:100BB000F4FFE5CFF3FFE5CFF5FFE5CFF7FFE5CF96
:100BC000F6FFE5CFEAFFE5CFE9FFE5CFDAFFE55035
:100BD000E5CFE0FFE5CFD8FF1000DACFE4FFE2CFAA
:100BE000DAFFE9CFE4FFEACFE4FFF6CFE4FFF7CF87
:100BF000E4FFF5CFE4FFF3CFE4FFF4CFE4FFFACF57
:100C0000E4FF00EE00F0100EE80403E3EECFE4FF93
:100C1000FBD700EE10F0090EE80403E3EECFE4FF8B
:100C2000FBD7E652F2A407D02BEC03F0F2942DECA4
:100C300003F018EC04F09EA007D016EC04F09E9090
:100C4000D0EC03F027EC04F09EAA03D09E9AB8ECF7
:100C500007F0E55200EE18F0090EE80403E3E5CFD3
:100C6000EDFFFBD700EE0FF0100EE80403E3E5CF35
:100C7000EDFFFBD7E5CFFAFFE5CFF4FFE5CFF3FFBC
:100C8000E5CFF5FFE5CFF7FFE5CFF6FFE5CFEAFFCC
:0A0C9000E5CFE9FFE5CFDAFF110020
:060C9A000001E06BED6BB0
:100CA000F06912000001E051020A1CE0030A0BE0A7
:100CB000010A4AE1020E0001FF5D47E10001010E59
:100CC000E06FED6BFF0CED51EA6AE10FE96E000E8B
:100CD000EA22FFC0EFFFED2B0C0EED5D36E3020EB6
:100CE000E06FFF0CEE6B080EEE5D2CE2EF6B0C0E6E
:100CF000EF5D1FE2EF51EA6AE10FE96E000EEA22B2
:100D0000EFCF10F0EE510C0DF3CF11F0F4CF12F045
:100D1000800E1126000E1222EF510F011124E96EF0
:100D2000000E1220EA6EEF50105C03E10001EF2B81
:100D3000DED70C0E0001EF5D03E1E06BEE51120017
:0C0D4000EE2BD1D7E06BFF0CE06BFF0C3A
:040D4C00006A0EAE7D
:100D5000AFEF06F00D6C0E1EE86A0E22001E09AE03
:100D6000B7EF06F0086C091EE86A0922001EF8ECCD
:100D700007F009BEC7EF06F000AE000C086C091EB4
:100D8000E86A0922046C051EE86A0522000C00BE10
:100D9000BEEF06F00188FF0C006A0EAED7EF06F03A
:100DA0000C6C0D1E0E1EE86A0D220E22001E09AEEE
:100DB000E1EF06F0076C081E091EE86A0822092206
:100DC000001EC3EC07F009BEF4EF06F000AE000C05
:100DD000076C081E091EE86A08220922036C041E1B
:100DE000051E04220522000C00BEE8EF06F0018873
:020DF000FF0CF6
:0E0DF200956A836A1200D9CFE6FFE1CFD9FFE0
:100E0000FE0EDBCF11F0800E11141AE1FD0EDBCFC8
:100E100012F0FE0EDBCF13F0133404E21250070879
:100E2000000E13540DE3FD0EDBCFE9FFFE0EDBCF0A
:100E3000EAFF4E0EE9260F0EEA22EF508310836E72
:100E4000E552E7CFD9FF1200D9CFE6FFE1CFD9FFB6
:100E5000FE0EDBCF11F0800E11141AE1FD0EDBCF78
:100E600012F0FE0EDBCF13F0133404E21250070829
:100E7000000E13540DE3FD0EDBCFE9FFFE0EDBCFBA
:100E8000EAFF4E0EE9260F0EEA22EF1C8314836E52
:080E9000E552E7CFD9FF120083
:080E98001E0EF66E000EF76E4F
:100EA000000EF86E0F010900F550356F0900F5507E
:100EB000366F03E1356701D03DD00900F550306F42
:100EC0000900F550316F0900F550326F0900090033
:100ED000F550E96E0900F550EA6E090009000900B5
:100EE000F550336F0900F550346F09000900F6CF53
:100EF00037FFF7CF38FFF8CF39FF30CFF6FF31CFCC
:100F0000F7FF32CFF8FF0F01335302E1345307E00C
:100F10000900F550EE6E3307F8E23407F9D737CF02
:100F2000F6FF38CFF7FF39CFF8FF0F013507000E76
:060F3000365BBFD7120082
:0A0F3600B06A190EAF6EAC8AAC94DD
:100F4000B886AC98AB8EAB889E9A9D8A9F9A949CEB
:100F5000948E1200D9CFE6FFE1CFD9FF9EA8FED72D
:100F6000FE0EDB50AD6E9E98E552E7CFD9FF120022
:100F7000AECFFFF052EC06F00001F06FFFC0E6FFCD
:060F8000E9DFE55212005A
:0A0F8600056A046A036A180EE76E9C
:100F9000D8900736083609360336043605360C5025
:100FA000035C0D5004580E50055807E30C50035EC7
:100FB0000D50045A0E50055A072AE72EEAD71200A0
:100FC000936A816A1200D9CFE6FFE1CFD9FFFE0E06
:100FD000DB50090809E3FE0EDB50EA6A440FE96EB4
:100FE0000F0EEA22EF50816EE552E7CFD9FF1200D3
:100FF000056A046A100EE76ED89008360936043682
:1010000005360D50045C0E50055805E30D50045E86
:0C1010000E50055A082AE72EF0D71200F7
:04101C00800EF36EE1
:1010200000EE00F00F0E01D81200EA6002D0EE6A66
:0C103000FCD7F350E9601200EE6AFCD718
:04103C001EEE00F0B4
:101040002EEE00F0F86A019C4CEC07F003EC00F087
:0810500034EC00F0FBD71200A4
:08105800000000000000000090
:0610600000000100010088
:0A1066003837303039323737313374
:1010700037313837303039324443374342353837E7
:1010800030303932433333384545383730303932F0
:1010900041373644444638373030393239434330AB
:1010A00034393837303039323942463237433837BD
:1010B00030303831303231333137383730303746ED
:0610C000314437303935E0
:0A10C600407924301912027800105E
:0810D000010204081020408019
:0810D8000102040810200101CF
:0410E0000101010108
:020000040030CA
:0100010008F6
:0100020001FC
:010003001EDE
:0100050001F9
:010006008079
:010008000FE8
:01000900C036
:01000A000FE6
:01000B00E014
:01000C000FE4
:01000D0040B2
:00000001FF
