:020000040000FA
:0600000029EF05F01200DB
:020006001200E6
:060008008BEF03F0120073
:02000E000000F0
:0400100000000000EC
:0600180058EF03F0120096
:02001E000500DB
:100020008F0A0000B20000000C000000870A0000E8
:10003000D3000000080000007C0A0000BE000000A1
:100040000B0000000E000000DB00000006000000B6
:0C0050006E0A0000A40000000E0000007A
:04005C0097D9E652F8
:1000600036D8DF6A0A0EDF5C09E2320E9DD9DFCF97
:10007000E6FFEEEC04F0E552DF2AF4D70001E26B74
:100080008AD8B8D860D9E2C0E6FFEEEC04F0E552B9
:1000900023D90001A851F4E0A86B02D9E2C0E9FF1E
:1000A000EA6AE9BEEA6877D9EF5008E08080640E1A
:1000B0007BD98090A00EE66E0F0E03D0F40EE66E94
:1000C000010EE66E26EC02F0E552E552D9D7D39840
:1000D000D38AD38C0001E26B020EE16F9290809084
:1000E0008CEC04F0EBEC04F09AEC02F055EC03F02D
:1000F000100EE66E270EE66EDAEC01F0E552E552E0
:10010000E2C0E6FFEEEC04F0E5521DD9E80EE66E23
:10011000030EE66E26EC02F0E552E5520A0EE66E9C
:10012000E66A3FEC02F0E552E55212002FD9040EC8
:10013000E126DE6ADD6ADECF10F0DDCF11F0FD0EC4
:10014000DBCF12F0FE0EDBCF13F01250105C135019
:1001500011581AE2020EDB6A030EDB6A020EDBCFD5
:1001600010F0030EDBCF11F0A00E105C000E115842
:1001700006E2020EDB2A030EF1E3DB2AEFD7DF2AC9
:10018000010ED9E3DB2AD7D7040EE15C02E2E16A73
:10019000E552E16E05D1FAD8020EE126DE6ADD6A8B
:1001A000DECF10F0DDCF11F0D890115004E6060E2E
:1001B000105C000E115817E2DFCFE6FF08EC03F0E9
:1001C000E55200090BE0DFCFE6FFADD8E552DECF08
:1001D000E9FFDDCFEAFFDFD8010EEF6EDF2A010E67
:1001E000DFE3DB2ADDD7020EE15C02E2E16AE552E1
:1001F000E16ED6D0E2C0E9FFEA6AE9BEEA68CBD890
:10020000EF6AE2C010F0116A10BE116810C0E6FF7C
:1002100011C0E6FFA0EC04F0E552E5521200B6D89A
:10022000E6520001E229DF6EDFCF10F0060EE76E26
:100230001018E8AE02D0E73402D0E750105C0CE2B0
:10024000DFCFE9FFEA6AE9BEEA68A5D8EF5002E02D
:10025000010E03D0DF2AE8D7000EE552A1D096D8D0
:10026000E6520001E205DF6EDFCF10F0FF0EE76E11
:100270001018E8AE02D0103403D0E750D8801054E4
:100280000CE2DFCFE9FFEA6AE9BEEA6884D8EF5002
:1002900002E0010E03D0DF06E7D7000EE55280D062
:1002A0000001E1510FE1E22B050EE76EE219E8AE25
:1002B00002D0E23503D0E750D880E2550CE2050EBB
:1002C000E26F1200E10505E1E207E23504E3E26BCB
:1002D0001200020EE15D12000001E151020A13E07A
:1002E000030A0AE0010A01E0120099DF00090EE1A9
:1002F000B6DF000911E113D0B2DF00090DE18FDF95
:10030000000904E10CD08BDF000903E00001E16B80
:100310001200A5DF000903E00001010E02D0000178
:10032000020EE16F120032D8FE0EDBCF10F0116A20
:1003300010BE116810C0E6FF11C0E6FF8FEC04F09C
:10034000E552E5522DD00001E15106E1060EE66EC0
:10035000E66A8FEC04F010D0E10509E1070EE66EC5
:10036000E66A8FEC04F0E552E552060E08D0060E60
:10037000E66EE66AA0EC04F0E552E552070EE66E82
:10038000E66AA0EC04F0E552E5521200D9CFE6FF90
:10039000E1CFD9FF1200DB0EE926000EEA2212009F
:1003A000E552E7CFD9FF1200E66EE66ABFDEE552FE
:0403B000E552120000
:0C03B4009CD8D59EFD0EDBCFA4F0FE0E01
:1003C000DBCFA5F0D59C9CD8D59AD586F28AF2943D
:1003D000F184D58E91D0D59E120092D8D58E120080
:1003E00086D8CD90FD0EDBCFA6F0FE0EDBCFA7F0BA
:1003F0008DD89D809E909F90CD8ECD9CCD98CD9A8E
:10040000CD96CD92CD8078D081D8CD801200CD9080
:1004100012000001AA2B000EAB23AE51AA5DAF5112
:10042000AB5904E3AA6BAB6B010EA86F9DEF02F012
:100430000001AC2B000EAD23B051AC5DB151AD59F4
:1004400004E3AC6BAD6B010EA96F120050D8FD0E2A
:10045000DBCFAEF0FE0EDBCFAFF00A0E0D6E0E6AF4
:10046000AEC008F0AFC009F0EAEC03F008C0AEF08F
:1004700009C0AFF00001AA6BAB6BA86B3DD037D8B9
:10048000FD0EDBCFB0F0FE0EDBCFB1F00001AC6BA8
:10049000AD6BA96B31D0186A1650135C106E1750F3
:1004A0001458116E18501558126E0C6A010E0D6E0C
:1004B0000E6A10C007F011C008F012C009F010EF6A
:1004C00004F013681468156A120007C010F008C021
:1004D00011F009C012F00750D76E120003C010F0DF
:1004E00004C011F005C012F00350CE6E1200D9CF37
:1004F000E6FFE1CFD9FF1200E552E7CFD9FF1200A6
:100500000BD80350D66E08D865EF02F00CD8075010
:10051000CF6E09D86EEF02F0D4DFA4C016F0A5C0EC
:1005200017F04BEF02F0CDDFA6C016F0A7C017F012
:040530004BEF02F09B
:0C053400946882681200D9CFE6FFE1CF86
:10054000D9FFE652DF6A060EDF5C56E287D8EF502D
:10055000E66E95D8E552E750EF6EDF50EA6AB20FCB
:10056000E96E000EEA22EF508214E66E77D8E5526B
:10057000E750EF6E73D8EFCF10F081D8EF50105CDA
:1005800039E16CD8EF50E66E81D8E552E750EF6E56
:100590007DD8EF5014E152D8EECF10F0EFCF11F02C
:1005A000C80E105C000E115805E248D8EE2A000E65
:1005B000EF2220D0DF5059D8010EEF6E1BD03ED86D
:1005C000EE50ED1004E0DF5050D8EF5002E0000E86
:1005D00001D0010EE66EDF50EA6A8C0FE96E000E64
:1005E000EA22E552E750EF6E29D8EE6AED6ADF5055
:1005F0003CD8EF6ADF2AA7D7E5523DD023D802E3E3
:10060000000E05D0FE0EEA6ADB3447D8EF5033D037
:1006100019D802E3000E08D0FE0EDB50EA6A8C0FF8
:10062000E96E000EEA22EF5026D00CD802E3FF0E4E
:1006300004D0FE0EDB5019D8EF501DD0EA6ADF342B
:100640004DEF03F0D9CFE6FFE1CFD9FF060EF36EF1
:10065000FE0EDBCFF4FFF350F45C1200DF50EA6AC9
:10066000800FE96E000EEA221200EA6A920FE96E2C
:10067000000EEA221200E552E7CFD9FF1200DF5048
:10068000EA6A860FE96E000EEA221200DF50EA6A7B
:10069000B80FE96E000EEA221200FE0BEA36E96E90
:0A06A000980EE926000EEA2212006F
:0606AA00F28ED08E12005A
:1006B000D8CFE4FFE0CFE4FFE46E56D800EE00F0C0
:1006C000100EE80403E3EECFE4FFFBD700EE10F0DA
:1006D000090EE80403E3EECFE4FFFBD7E652F2B4E1
:1006E0006BD89EB070D8E55200EE18F0090EE80401
:1006F00003E3E5CFEDFFFBD700EE0FF0100EE804AB
:1007000003E3E5CFEDFFFBD744D8E550E5CFE0FFAD
:10071000E5CFD8FF100028D800EE00F0100EE80456
:1007200003E3EECFE4FFFBD700EE10F0090EE80480
:1007300003E3EECFE4FFFBD7E652F2B43DD89EB020
:1007400042D8E55200EE18F0090EE80403E3E5CFC5
:10075000EDFFFBD700EE0FF0100EE80403E3E5CF4A
:10076000EDFFFBD716D81100DACFE4FFE2CFDAFFB6
:10077000E9CFE4FFEACFE4FFF6CFE4FFF7CFE4FFF1
:10078000F5CFE4FFF3CFE4FFF4CFE4FFFACFE4FFCB
:100790001200E5CFFAFFE5CFF4FFE5CFF3FFE5CF99
:1007A000F5FFE5CFF7FFE5CFF6FFE5CFEAFFE5CFB1
:1007B000E9FFE5CFDAFF1200EBEC01F0F294EDEC8B
:1007C00001F009EF02F007EC02F09E9004EC02F059
:0407D00018EF02F02C
:0C07D400006A0EAEF3EF03F00D6C0E1E79
:1007E000E86A0E22001E09AEFBEF03F0086C091E3A
:1007F000E86A0922001E03EC05F009BE0BEF04F0C5
:1008000000AE000C086C091EE86A0922046C051E83
:10081000E86A0522000C00BE02EF04F00188FF0C1C
:10082000006A0EAE1BEF04F00C6C0D1E0E1EE86A83
:100830000D220E22001E09AE25EF04F0076C081EE3
:10084000091EE86A08220922001ECEEC04F009BE47
:1008500038EF04F000AE000C076C081E091EE86AB1
:1008600008220922036C041E051E04220522000C26
:0A08700000BE2CEF04F00188FF0C1D
:06087A001E0EF66E000EDA
:10088000F76E000EF86E00010900F550CE6F0900FA
:10089000F550CF6F03E1CE6701D03DD00900F55090
:1008A000C96F0900F550CA6F0900F550CB6F0900F8
:1008B0000900F550E96E0900F550EA6E09000900DB
:1008C0000900F550CC6F0900F550CD6F0900090003
:1008D000F6CFD0F0F7CFD1F0F8CFD2F0C9C0F6FF05
:1008E000CAC0F7FFCBC0F8FF0001CC5302E1CD53E3
:1008F00007E00900F550EE6ECC07F8E2CD07F9D716
:10090000D0C0F6FFD1C0F7FFD2C0F8FF0001CE077C
:08091000000ECF5BBFD71200FF
:08091800956A836A12002CD8D5
:100920000BE134D804E212500708000E135404E31C
:1009300018D8EF508310836EE552E7CFD9FF12002D
:100940001BD80BE123D804E212500708000E135401
:1009500004E307D8EF1C8314836EE552E7CFD9FF79
:100960001200FD0EDBCFE9FFFE0EDBCFEAFFD30E58
:10097000E926000EEA221200D9CFE6FFE1CFD9FF27
:10098000FE0EDBCF11F0800E11141200FD0EDBCF36
:0C09900012F0FE0EDBCF13F01334120047
:04099C00056A046A7A
:1009A000036A180EE76ED890073608360936033604
:1009B000043605360C50035C0D5004580E50055893
:1009C00007E30C50035E0D50045A0E50055A072AD7
:0609D000E72EEAD7120039
:0A09D600936A816A1200D9CFE6FF90
:1009E000E1CFD9FFFE0EDB50090809E3FE0EDB5014
:1009F000EA6ABE0FE96E000EEA22EF50816EE55200
:060A0000E7CFD9FF120050
:0A0A0600056A046A100EE76ED8902E
:100A100008360936043605360D50045C0E5005586C
:100A200005E30D50045E0E50055A082AE72EF0D754
:020A30001200B2
:0E0A3200800EF36E00EE00F00F0E01D81200E1
:100A4000EA6002D0EE6AFCD7F350E9601200EE6A69
:020A5000FCD7D1
:0E0A52001EEE00F02EEE00F0F86A019C3DEC66
:0E0A600004F003EC00F02EEC00F0FBD71200C7
:020A6E00000086
:0C0A700000000000000000000100010078
:040A7C004079243069
:070A800019120278001000BA
:080A8700010204081020408068
:010A8F000165
:0B0A9000020408102001010101010117
:020000040030CA
:0100010008F6
:0100020001FC
:010003001EDE
:0100050001F9
:010006008079
:010008000FE8
:01000900C036
:01000A000FE6
:01000B00E014
:01000C000FE4
:01000D0040B2
:00000001FF
