:020000040000FA
:06000000D4EF04F0120031
:020006001200E6
:06000800BAEF02F0120045
:02000E000000F0
:0400100000000000EC
:0400140000000000E8
:0600180087EF02F0120068
:02001E000600DA
:10002000E40900008000000011000000140000003E
:10003000C100000004000000DC090000B300000063
:1000400008000000D2090000A90000000A0000001A
:100050000E000000BB00000006000000C409000004
:08006000910000000E000000F9
:080068002AD81DEC03F082D838
:10007000B7D8C6C0E6FF74EC04F0E55223D90001FE
:10008000955116E0956B02D9C6C0E9FFEA6AE9BE50
:10009000EA685ED9EF5004E0D00EE66E070E03D09A
:1000A000F40EE66E010EE66E0FEC02F0E552E5523C
:1000B000320EE66EE66A26D8E552E552D6D7000142
:1000C000C66B010EC56F2FEC04F071EC04F019EC57
:1000D00003F083EC02F0570EE66E120EE66EC4ECEF
:1000E00001F0E552E552C6C0E6FF74EC04F0E552BB
:1000F00020D9F40EE66E010EE66E0FEC02F0E5522A
:10010000E55212002AD9040EE126DE6ADD6ADECF4E
:1001100010F0DDCF11F0FD0EDBCF12F0FE0EDBCFC5
:1001200013F01250105C135011581DE2020EDB6ADE
:10013000030EDB6A020EDBCF10F0030EDBCF11F0F3
:10014000D890115004E6A00E105C000E115806E283
:10015000020EDB2A030EEEE3DB2AECD7DF2A010EC8
:10016000D6E3DB2AD4D7040EE15C02E2E16AE55271
:10017000E16EF8D0F2D8020EE126DE6ADD6ADECF4B
:1001800010F0DDCF11F0D890115004E6060E105C8F
:10019000000E11581EE2DECFE9FFDDCFEAFFD89056
:1001A000E936EA36800EE926000EEA22EE50ED101E
:1001B0000BE0DFCFE6FFADD8E552DECFE9FFDDCFC4
:1001C000EAFFC6D8010EEF6EDF2A010ED8E3DB2A64
:1001D000D6D7020EE15C02E2E16AE552E16EC2D0DE
:1001E000C6C0E9FFEA6AE9BEEA68B2D8EF6AC6C0EB
:1001F00010F0116A10BE116810C0E6FF11C0E6FFD2
:1002000043EC04F0E552E5521200A7D8E652000193
:10021000C629DF6EDFCF10F0060EE76E1018E8AECD
:1002200002D0E73402D0E750105C0CE2DFCFE9FFE8
:10023000EA6AE9BEEA688CD8EF5002E0010E03D00A
:10024000DF2AE8D7000EE5528DD087D8E6520001AC
:10025000C605DF6EDFCF10F0FF0EE76E1018E8AEB8
:1002600002D0103403D0E750D88010540CE2DFCF16
:10027000E9FFEA6AE9BEEA686BD8EF5002E0010ED6
:1002800003D0DF06E7D7000EE5526CD00001C55160
:100290000FE1C62B050EE76EC619E8AE02D0C635D3
:1002A00003D0E750D880C6550CE2050EC66F120089
:1002B000C50505E1C607C63504E3C66B1200020E8C
:1002C000C55D12000001C551020A13E0030A0AE0ED
:1002D000010A01E0120099DF00090EE1B6DF000912
:1002E00011E113D0B2DF00090DE18FDF000904E155
:1002F0000CD08BDF000903E00001C56B1200A5DF05
:10030000000903E00001010E02D00001020EC56FDA
:10031000120023D8FE0EDBCF10F0116A10BE116858
:1003200010C0E6FF11C0E6FF32EC04F0E552E552E2
:1003300019D00001C65105E1060E18D8070EBDEF11
:1003400001F0C60504E1070E11D8060E16D81200FA
:10035000BB0EE926000EEA221200D9CFE6FFE1CF5C
:10036000D9FF1200E552E7CFD9FF1200E66EE66A28
:1003700032EC04F0E552E5521200E66EE66A43EC18
:0803800004F0E552E552120001
:080388009BD8D59EFD0EDBCFD2
:1003900091F0FE0EDBCF92F0D59C9BD8D59AD586F6
:1003A000F28AF294F184D58E90D0D59E120091D825
:1003B000D58E120085D8CD90FD0EDBCF93F0FE0ECA
:1003C000DBCF94F08CD89D809E909F90CD8ECD8C6D
:1003D000CD88CD8ACD96CD92CD8077D080D8CD8076
:1003E0001200CD9012000001972B000E98239B5114
:1003F000975D9C51985904E3976B986B010E956F2C
:1004000012000001992B000E9A239D51995D9E5177
:100410009A5904E3996B9A6B010E966F120050D8AB
:10042000FD0EDBCF9BF0FE0EDBCF9CF00001976B47
:10043000986B956B4AD044D8FD0EDBCF9DF0FE0E35
:10044000DBCF9EF0020E0D6E0E6A9DC008F09EC0BE
:1004500009F08DEC03F008C09DF009C09EF000018A
:10046000996B9A6B966B31D0186A1650135C106EAC
:1004700017501458116E18501558126E0C6A010E50
:100480000D6E0E6A10C007F011C008F012C009F01E
:10049000B3EF03F013681468156A120007C010F078
:1004A00008C011F009C012F00750D76E120003C047
:1004B00010F004C011F005C012F00350CE6E12000F
:1004C000D9CFE6FFE1CFD9FF1200E552E7CFD9FF40
:1004D00012000BD80350D66E08D84EEF02F00CD89D
:1004E0000750CF6E09D857EF02F0D4DF91C016F055
:1004F00092C017F034EF02F0CDDF93C016F094C035
:0605000017F034EF02F0D9
:0A050600F28ED08EF28C1200D8CFD6
:10051000E4FFE0CFE4FFE46E56D800EE00F0100EEA
:10052000E80403E3EECFE4FFFBD700EE10F0090E82
:10053000E80403E3EECFE4FFFBD7E652F2B46BD856
:100540009EB070D8E55200EE18F0090EE80403E3FF
:10055000E5CFEDFFFBD700EE0FF0100EE80403E34C
:10056000E5CFEDFFFBD744D8E550E5CFE0FFE5CF81
:10057000D8FF100028D800EE00F0100EE80403E3C6
:10058000EECFE4FFFBD700EE10F0090EE80403E322
:10059000EECFE4FFFBD7E652F2B43DD89EB042D88E
:1005A000E55200EE18F0090EE80403E3E5CFEDFF95
:1005B000FBD700EE0FF0100EE80403E3E5CFEDFFEC
:1005C000FBD716D81100DACFE4FFE2CFDAFFE9CF8C
:1005D000E4FFEACFE4FFF6CFE4FFF7CFE4FFF5CF87
:1005E000E4FFF3CFE4FFF4CFE4FFFACFE4FF12001F
:1005F000E5CFFAFFE5CFF4FFE5CFF3FFE5CFF5FF59
:10060000E5CFF7FFE5CFF6FFE5CFEAFFE5CFE9FF5E
:10061000E5CFDAFF1200D5EC01F0F294D7EC01F04F
:10062000F3EF01F0F1EC01F09E90EEEC01F001EF40
:0206300002F0D6
:0E0632000F0E946E82681200D9CFE6FFE1CF62
:10064000D9FF040EE126DE6ADD6ADECF10F0DDCFD1
:1006500011F0D890115004E6030E105C000E1158F2
:100660003BE2DECFE9FFDDCFEAFF8C0EE926000E8C
:10067000EA22EF1C826E020EDB6A030EDB6A020EB8
:10068000DBCF10F0030EDBCF11F0D890115004E651
:10069000020E105C000E11581AE2020EDBCFE9FFC9
:1006A000030EDBCFEAFF8F0EE926000EEA22EF50A1
:1006B000821404E11BD8010EEE6E02D017D8EE6A48
:1006C000ED6A020EDB2A030EDAE3DB2AD8D7DF2A33
:1006D000010EBBE3DB2AB9D7040EE15C02E2E16A5A
:1006E000E552E16EE552E7CFD9FF1200DECF10F000
:1006F000DDCF11F0D89010361136020EDB501024E9
:10070000E96E030EDB501120EA6ED890E936EA3626
:0A071000800EE926000EEA22120016
:06071A00006A0EAE96EF2E
:1007200003F00D6C0E1EE86A0E22001E09AE9EEF4D
:1007300003F0086C091EE86A0922001EAEEC04F002
:1007400009BEAEEF03F000AE000C086C091EE86AAB
:100750000922046C051EE86A0522000C00BEA5EF04
:1007600003F00188FF0C006A0EAEBEEF03F00C6CC4
:100770000D1E0E1EE86A0D220E22001E09AEC8EFE5
:1007800003F0076C081E091EE86A08220922001EF1
:1007900091EC04F009BEDBEF03F000AE000C076C37
:1007A000081E091EE86A08220922036C041E051EA1
:1007B00004220522000C00BECFEF03F00188FF0CDD
:1007C0001E0EF66E000EF76E000EF86E00010900A8
:1007D000F550A46F0900F550A56F03E1A46701D09F
:1007E0003DD00900F5509F6F0900F550A06F09003A
:1007F000F550A16F09000900F550E96E0900F550A8
:10080000EA6E090009000900F550A26F0900F550D1
:10081000A36F09000900F6CFA6F0F7CFA7F0F8CF35
:10082000A8F09FC0F6FFA0C0F7FFA1C0F8FF00012D
:10083000A25302E1A35307E00900F550EE6EA207B0
:10084000F8E2A307F9D7A6C0F6FFA7C0F7FFA8C034
:0E085000F8FF0001A407000EA55BBFD7120041
:02085E00956A99
:10086000836A12002CD80BE134D804E21250070836
:10087000000E135404E318D8EF508310836EE55232
:10088000E7CFD9FF12001BD80BE123D804E21250A6
:100890000708000E135404E307D8EF1C8314836E7B
:1008A000E552E7CFD9FF1200FD0EDBCFE9FFFE0EC8
:1008B000DBCFEAFFB30EE926000EEA221200D9CF01
:1008C000E6FFE1CFD9FFFE0EDBCF11F0800E111451
:1008D0001200FD0EDBCF12F0FE0EDBCF13F013344F
:0208E000120004
:0E08E200936A816A1200D9CFE6FFE1CFD9FFF9
:1008F000000EF36EFE0EDBCFF4FFF350F45C0DE35D
:10090000FE0EDB50090809E3FE0EDB50EA6AA90F70
:10091000E96E000EEA22EF50816EE552E7CFD9FF73
:020920001200C3
:0E092200056A046A036A180EE76ED89007365D
:10093000083609360336043605360C50035C0D5074
:1009400004580E50055807E30C50035E0D50045A2E
:0C0950000E50055A072AE72EEAD71200C5
:04095C00056A046ABA
:10096000100EE76ED89008360936043605360D505D
:10097000045C0E50055805E30D50045E0E50055AF8
:08098000082AE72EF0D712004F
:08098800800EF36E00EE00F09A
:100990000F0E01D81200EA6002D0EE6AFCD7F350C5
:0809A000E9601200EE6AFCD7C9
:0809A8001EEE00F02EEE00F03F
:1009B000F86A019CE0EC03F003EC00F034EC00F08A
:0409C000FBD712004F
:0C09C40000000000000000000000010026
:0209D000010024
:0A09D2004079243019120278001059
:0409DC000102040808
:0409E0001020408023
:0C09E40000000000000000000000000007
:0509F00010204001028F
:020000040030CA
:0100010002FC
:0100020003FA
:010003001EDE
:010005008179
:010006008178
:010008000FE8
:01000900C036
:01000A000FE6
:01000B00E014
:01000C000FE4
:01000D0040B2
:00000001FF
